L999CARMELO     ANTHONY       F   00130001003800040001
T124SCOTTIE     BARNES        F   00150004000100080001
M436DESMOND     BANE          G   00190003000300040001
C123JARRETT     ALLEN         C   00160002000000110002
T765KAWHI       LEONARD       SF O00000000000000000000
G888STEPH       CURRY         PG  13990472016600356019
B690KEVIN       DURANT        PF  12430254008704030040
L420LEBRON      JAMES         SF  15000529005600532007
G111KLAY        THOMPSON      SG  23000055002300450004
G890DRAYMOND    GREEN         SF  89004300250054500029
G486JORDAN      POOLE         PG  74800123040001500003
M143GIANNAS     ANTEROKOUNMPO PF  14500624020005430040
C655KEEGAN      ALLEN         PGDD12900008003300520009
B555LARRY       BIRD          SF  00570092010201300021
M987HAROLD      VARNER        C   00980050001503540095
B425KYLER       MURRAY        GDD 02110103004500340004
T176DEEBO       SAMUEL        PFO 02780034006202310062
M908JOHN        CARTER        SGDD00230014000300050012
B078JONNA       NETTUNO       FO  00150030000300070015
B009NIKLAS      STANKA        C   00340015000200120013
G002CARWYN      FISHER        PFO 00230002000600150001
N236MOSHE       DUARTE        PG  00760007001600020000
O428COLE        ANTHONY       G   00160006000200060001
I621GOGA        BITADZE       CF  00070001000200040001
N876BRANDON     INGRAM        F   00230006000200060001